:100000000C945D000C9485000C9485000C94850084
:100010000C9485000C9485000C9485000C9485004C
:100020000C9485000C9485000C9485000C9485003C
:100030000C9485000C9485000C9485000C9485002C
:100040000C94F0010C9485000C9485000C948500B0
:100050000C9485000C9485000C9485000C9485000C
:100060000C9485000C94850000000008000201003B
:100070000003040700000000000000000000000072
:10008000250028002B0000000000240027002A0083
:10009000040404040404040402020202020203032E
:1000A0000303030301020408102040800102040836
:1000B0001020010204081020680311241FBECFEF96
:1000C000D8E0DEBFCDBF11E0A0E0B1E0E4E2F8E0AF
:1000D00002C005900D92AA31B107D9F721E0AAE13B
:1000E000B1E001C01D92A534B207E1F710E0CDE503
:1000F000D0E004C02197FE010E940A04CC35D1074C
:10010000C9F70E943A020C9410040C94000090E08D
:10011000FC01EC55FF4F249180579F4FFC018491C7
:10012000882399F090E0880F991FFC01EA57FF4F50
:10013000A591B491FC01E458FF4F859194918FB73C
:10014000F894EC91E22BEC938FBF089590E0FC01C2
:10015000E859FF4F2491FC01EC55FF4F3491FC010D
:10016000E057FF4FE491EE23C9F0222339F023300A
:1001700001F1A8F4213019F1223029F1F0E0EE0F5D
:10018000FF1FE458FF4FA591B4918FB7F894EC91FD
:10019000611126C030953E233C938FBF08952730D0
:1001A000A9F02830C9F0243049F7809180008F7D74
:1001B00003C0809180008F7780938000DFCF84B56B
:1001C0008F7784BDDBCF84B58F7DFBCF8091B0006E
:1001D0008F778093B000D2CF8091B0008F7DF9CF20
:1001E0003E2BDACF0F931F93CF93DF93C82F9091BD
:1001F0002B01892F8695869586958F3141F08C9FAE
:10020000E001112485E0D695C7958A95E1F792FD26
:10021000C09580912901811107C080912A010E9417
:10022000870081E0809329010C2F10E0D0912A01F2
:100230008D2F0E9487000115110541F460E08D2F7C
:10024000DF91CF911F910F910C94A6000F3F1105E4
:1002500011F461E0F4CFED2FF0E0E859FF4FE491A5
:10026000E33039F140F4E130B1F0E230E9F0003848
:1002700011057CF7E3CFE73031F1E83061F1E4308C
:10028000B1F78091800080628093800010938B0092
:1002900000938A0004C084B5806884BDC7BDDF9127
:1002A000CF911F910F91089584B5806284BDC8BD20
:1002B000F6CF809180008068809380001093890041
:1002C00000938800ECCF8091B00080688093B000EC
:1002D000C093B300E4CF8091B00080628093B000FF
:1002E000C093B400DCCF0F931F93DC0112968C9166
:1002F000129704C076956795579547958A95D2F7DA
:1003000017960D911D912D913C911A974017510709
:100310006207730729F416968C911F910F91089527
:1003200017964D935D936D937C931A9700911A01E4
:1003300010911B0120911C0130911D01B901A801F0
:10034000769567955795479500FF18C040931A0119
:1003500050931B0160931C0170931D01E0911A01E1
:1003600013968C911397E81788F4EF70F0E0E05043
:10037000FF4F80818E5C16968C93CFCF89E54827FE
:1003800081EF582760958FE77827E0CF8FEFF3CF85
:10039000FC01848195810895DC01FB0184E191E0F9
:1003A0009183808312968C911297828313968C91FD
:1003B0001397838314968D919C91159795838483CD
:1003C00016968C911697868317968D919D910D9018
:1003D000BC91A02D87839087A187B287CB01089518
:1003E0001F920F920FB60F9211242F933F938F936A
:1003F0009F93AF93BF938091230190912401A0918B
:100400002501B09126013091220123E0230F2D37E1
:1004100058F50196A11DB11D20932201809323015F
:1004200090932401A0932501B093260180911E0191
:1004300090911F01A0912001B09121010196A11D71
:10044000B11D80931E0190931F01A0932001B093D2
:100450002101BF91AF919F918F913F912F910F906B
:100460000FBE0F901F90189526E8230F0296A11D2E
:10047000B11DD2CF789484B5826084BD84B581608B
:1004800084BD85B5826085BD85B5816085BD80915F
:100490006E00816080936E001092810080918100D7
:1004A00082608093810080918100816080938100CF
:1004B000809180008160809380008091B100846091
:1004C0008093B1008091B00081608093B0008091F2
:1004D0007A00846080937A0080917A0082608093B1
:1004E0007A0080917A00816080937A0080917A000E
:1004F000806880937A001092C10000E010E08FB70E
:10050000F894C0902301D0902401E0902501F09050
:1005100026018FBF80912B01837009F4BDC08091AB
:10052000270190912801009709F4B6C04091390144
:1005300050913A0160913B0170913C014C155D0571
:100540006E057F0509F4A8C04F3F5F4F6F4F7F4F87
:1005500091F42091410130914201B701A601420F6F
:10056000531F611D711D40933D0150933E016093E7
:100570003F0170934001C0923901D0923A01E0925C
:100580003B01F0923C0140913D0150913E01609150
:100590003F0170914001C416D506E606F70608F43F
:1005A0007BC0DC01ED91FC910190F081E02D09957B
:1005B000EC0180913D0190913E01A0913F01B091ED
:1005C0004001A7019601281B390B4A0B5B0BCA019E
:1005D000B90120914301309144012C0F3D1F50E09F
:1005E00040E00E94D903AB01BC01CE01B0E0A0E025
:1005F000481759076A077B0708F055C080912B01FF
:100600008C7F816080932B0180912701909128013C
:10061000DC01ED91FC910280F381E02D09950E94AF
:10062000F200A0913701B0913801AF3FBA07A1F1B4
:1006300020914301309144012C0F3D1F0E94FB0388
:1006400080903D0190903E01A0903F01B09040010C
:1006500031E0831A9108A108B108860E971EA81EE2
:10066000B91EC814D904EA04FB04B0F080912B0130
:100670008C7F80932B0180912701909128012197F5
:10068000AE0170E060E0DC01ED91FC910280F3814D
:10069000E02D09950E94F2000115110509F42FCFF4
:1006A0000E9400002CCF80912B01982F93709130E5
:1006B00009F0B7CF8C7F826080932B018091270156
:1006C00090912801AE014150510970E060E0A0CF47
:1006D0000F931F93CF93DF93CDB7DEB76E970FB60F
:1006E000F894DEBF0FBECDBF1B828BE08C83E9EF99
:1006F000ED834FEF5FEFBA014B8B5C8B6D8B7E8B85
:100700004F8B588F698F7A8F1C8E1B8E1E8E1D8E7D
:1007100084E191E09F838E8386E088878FE08987DC
:100720002FEF3FEF3B872A8785E08C871D861E864B
:100730001F86188ACE0106969A8389833A8B298B65
:1007400007E211E0D80111961C921E9252964D9329
:100750005D936D937C93559756964D935D936D93F2
:100760007C9359975B961C921E925A975D961C92A9
:100770001E925C971496EC93149751963C932E938B
:1007800050972B813C8113963C932E9312976CE2E9
:1007900071E00E94CC01F801918380836E960FB6C0
:1007A000F894DEBF0FBECDBFDF91CF911F910F91A7
:1007B0000895A1E21A2EAA1BBB1BFD010DC0AA1FA2
:1007C000BB1FEE1FFF1FA217B307E407F50720F0BA
:1007D000A21BB30BE40BF50B661F771F881F991F35
:1007E0001A9469F760957095809590959B01AC017E
:1007F000BD01CF010895A29FB001B39FC001A39F87
:10080000700D811D1124911DB29F700D811D112449
:10081000911D0895EE0FFF1F0590F491E02D0994AE
:04082000F894FFCF7A
:10082400050A141E32141E28323C46505A646EFFC8
:0A08340000000000C8017301CC01B0
:00000001FF
