:100000000C9462000C948A000C948A000C948A0070
:100010000C948A000C948A000C948A000C948A0038
:100020000C948A000C948A000C948A000C948A0028
:100030000C948A000C948A000C948A000C948A0018
:100040000C940E010C948A000C948A000C948A0083
:100050000C948A000C948A000C948A000C948A00F8
:100060000C948A000C948A000000000024002700F1
:100070002A000000000023002600290000000000E4
:10008000250028002B0004040404040404040202D4
:100090000202020203030303030301020408102007
:1000A0004080010204081020010204081020000012
:1000B0000008000201000003040700000000000027
:1000C0000000CB0311241FBECFEFD8E0DEBFCDBFB1
:1000D00011E0A0E0B1E0E8E2F8E002C005900D9286
:1000E000A630B107D9F721E0A6E0B1E001C01D922A
:1000F000AF34B207E1F710E0C2E6D0E004C02197C8
:10010000FE010E940C04C136D107C9F70E945801B4
:100110000C9412040C940000833081F028F4813098
:1001200099F08230A9F008958730A9F08830C9F09D
:100130008430B1F4809180008F7D03C08091800075
:100140008F7780938000089584B58F7784BD08955C
:1001500084B58F7DFBCF8091B0008F778093B00006
:1001600008958091B0008F7DF9CF2FB7F8946091FA
:100170000B0170910C0180910D0190910E012FBF28
:100180000895CF93DF93DC011696ED91FC911797BC
:10019000309731F0D3964D915C91DF91CF910994D6
:1001A00012968D919C911397009779F0D3962D918B
:1001B0003C91D497EC01E881F9810280F381E02D34
:1001C000AB01BD01DF91CF910994DF91CF910895EB
:1001D00062307105C9F44130510521F042305105BA
:1001E00071F0089584E690E0A0E0B0E08093000113
:1001F00090930101A0930201B0930301089584EF4D
:1002000091E0A0E0B0E0F2CF6330710531F480916D
:10021000040191E089278093040108951F920F92B1
:100220000FB60F9211242F933F938F939F93AF9309
:10023000BF9380910B0190910C01A0910D01B091A1
:100240000E0130910A0123E0230F2D3758F5019656
:10025000A11DB11D20930A0180930B0190930C0105
:10026000A0930D01B0930E018091060190910701BA
:10027000A0910801B09109010196A11DB11D8093C3
:10028000060190930701A0930801B0930901BF9163
:10029000AF919F918F913F912F910F900FBE0F9033
:1002A0001F90189526E8230F0296A11DB11DD2CFED
:1002B000789484B5826084BD84B5816084BD85B541
:1002C000826085BD85B5816085BD80916E0081604D
:1002D00080936E00109281008091810082608093F3
:1002E00081008091810081608093810080918000F5
:1002F0008160809380008091B10084608093B10020
:100300008091B00081608093B00080917A00846019
:1003100080937A0080917A00826080937A00809145
:100320007A00816080937A0080917A00806880935F
:100330007A001092C10005EA10E0F8012491E1E989
:10034000EE2EE0E0FE2EF7018491882399F090E0F4
:10035000880F991FFC01E859FF4FA591B491FC014A
:10036000E458FF4F859194918FB7F8949C91292B75
:100370002C938FBFECE9F0E02491E8E8F0E0849161
:100380008823C1F090E0880F991FFC01E859FF4FC6
:10039000A591B491FC01E458FF4FC591D4919FB74A
:1003A000F8943C91822F809583238C93E8812E2BA7
:1003B00028839FBF88EE90E09093160180931501EB
:1003C00010921801109217011092390110923A01FF
:1003D00010923B0110923C011092350110923601AF
:1003E000109237011092380110924301109242018D
:1003F00010924101109245011092440180914801F0
:100400009091490190934701809346018FE091E0DC
:10041000909349018093480144244394CC24C3948D
:10042000D12C42E0A42EB12C59EB652E50E0752E54
:1004300020E0822E20E0922EC0914801D091490107
:10044000209709F452C12AA13BA137FD3DC03327B3
:10045000F901E255FF4F8491F901E656FF4F5490A0
:10046000F901EA57FF4F3490332079F081110E944F
:100470008C00E32DF0E0EE0FFF1FEE58FF4FA5912B
:10048000B491EC915E2281E009F480E081702CA1AE
:100490003DA1232B09F484259AA9981331C00E9409
:1004A000B5006AA77BA78CA79DA78DA99EA98130BF
:1004B000910509F498C00CF044C0892B09F466C07A
:1004C0000FA8D8ADC02DBCCFEC81FD81309719F0BD
:1004D000CE010995E1CFE881F981309711F0808153
:1004E000DBCF8A819B81009749F0DC01ED91FC9183
:1004F0000190F081E02DBE010995CECF80E0CCCFF8
:100500000E94B5002AA53BA54CA55DA5621B730BF7
:10051000840B950B2A853B854C855D856217730797
:100520008407950710F20E94B5006AA77BA78CA7E5
:100530009DA76AA964256AAB70E0CE010E94C10044
:10054000B4CF8230910509F481C0039709F0B8CF88
:100550008AA9811104C01EAA1DAA1CAA1BAA0E9456
:10056000B5002EA53FA548A959A9621B730B840BA2
:10057000950B2E8D3F8D48A159A1621773078407F3
:10058000950708F49DCF66E070E08FC08AA98111BD
:1005900021C08BA99CA9892B09F492CF0E94B50098
:1005A0002EA13FA148A559A5621B730B840B950B87
:1005B0002E853F85488959892617370748075907E7
:1005C00008F07ECF62E070E0CE010E94C1001CAA5C
:1005D0001BAA76CFDEAACDAA0E94B5006EA37FA388
:1005E00088A799A76DCF8AA9811108C08BA99CA95A
:1005F00001969CAB8BAB1EAA1DAA62CF0E94B500D0
:100600002EA13FA148A559A5621B730B840B950B26
:100610002A893B894C895D8962177307840795078E
:1006200008F44ECF63E070E0CE010E94C1000E944A
:10063000B5006EA37FA388A799A70E94B5006EA7F7
:100640007FA788AB99ABBEAAADAA3ACF8AA9811180
:1006500003C01EAA1DAABBCF0E94B5002EA13FA1B8
:1006600048A559A5621B730B840B950B2E893F89F6
:10067000488D598D621773078407950700F50E940E
:10068000B5002EA53FA548A959A9621B730B840B81
:10069000950B2A8D3B8D4C8D5D8D621773078407FA
:1006A000950708F40DCF64E070E0CE010E94C10010
:1006B0000E94B5006EA77FA788AB99AB01CF65E01C
:1006C00070E0CE010E94C1000E94B5006EA37FA31E
:1006D00088A799A70E94B5006EA77FA788AB99ABA2
:1006E00083E090E09EAB8DABEBCE8091040188233C
:1006F00009F448C00E94B50020914B0130914C0193
:1007000040914D0150914E01621B730B840B950B70
:1007100020910001309101014091020150910301AB
:10072000621773078407950768F10E94B50060930C
:100730004B0170934C0180934D0190934E01F30156
:100740008491F801C491F70154905520B1F0D091F3
:100750004A0181110E948C00E52DF0E0EE0FFF1F91
:10076000E458FF4FA591B4918FB7F8949C91D111A3
:1007700010C0C095C923CC938FBF80914A018425B6
:1007800080934A018114910409F456CE0E9400001E
:100790004FCEC92BF0CFEFE0F1E01182108213822F
:1007A0001282158214821782168284E190E0A0E002
:1007B000B0E082879387A487B58784EF91E0A0E0BB
:1007C000B0E086879787A08BB18B88EE93E0A0E09E
:1007D000B0E0828B938BA48BB58B80ED97E0A0E08B
:1007E000B0E0868B978BA08FB18F88EC90E0A0E073
:1007F000B0E0828F938FA48FB58F82E390E0A0E06A
:10080000B0E0868F978FA0A3B1A382E090E093A37E
:1008100082A315A214A20895EE0FFF1F0590F49174
:08082000E02D0994F894FFCFCC
:06082800F40100000100D4
:00000001FF
