:100000000C9462000C948A000C948A000C948A0070
:100010000C948A000C948A000C948A000C948A0038
:100020000C948A000C948A000C948A000C948A0028
:100030000C948A000C948A000C948A000C948A0018
:100040000C946D020C948A000C943B020C941502E3
:100050000C948A000C948A000C948A000C948A00F8
:100060000C948A000C948A000000000025002800EF
:100070002B0000000000240027002A0000000000E0
:1000800023002600290004040404040404040202DA
:100090000202020203030303030301020408102007
:1000A0004080010204081020010204081020000012
:1000B0000008000201000003040700000000000027
:1000C0000000FC0311241FBECFEFD8E0DEBFCDBF80
:1000D00011E0A0E0B1E0E2E6F8E002C005900D9288
:1000E000A631B107D9F721E0A6E1B1E001C01D9228
:1000F000AE3BB207E1F710E0C2E6D0E004C02197C2
:10010000FE010E942904C136D107C9F70E94B70237
:100110000C942F040C940000833081F028F481307B
:1001200099F08230A9F008958730A9F08830C9F09D
:100130008430B1F4809180008F7D03C08091800075
:100140008F7780938000089584B58F7784BD08955C
:1001500084B58F7DFBCF8091B0008F778093B00006
:1001600008958091B0008F7DF9CF1F93CF93DF93D7
:10017000282F30E0F901E255FF4F8491F901E6564E
:10018000FF4FD491F901EA57FF4FC491CC23A9F056
:10019000162F81110E948C00EC2FF0E0EE0FFF1F54
:1001A000E859FF4FA591B4918FB7F894EC911111D4
:1001B00008C0D095DE23DC938FBFDF91CF911F91D4
:1001C0000895DE2BF8CFFC01538D448D252F30E0B0
:1001D000842F90E0821B930B541710F0CF96089554
:1001E00001970895FC01918D828D981761F0A28D81
:1001F000AE0FBF2FB11D5D968C91928D9F5F9F7347
:10020000928F90E008958FEF9FEF0895FC01918DFC
:10021000828D981731F0828DE80FF11D858D90E069
:1002200008958FEF9FEF0895FC01918D228D892F06
:1002300090E0805C9F4F821B91098F7399270895EE
:100240008FE191E00E94140121E0892B09F420E064
:10025000822F089580E090E0892B29F00E942001F0
:1002600081110C9400000895FC01A48DA80FB92FF2
:10027000B11DA35ABF4F2C91848D90E001968F73CE
:100280009927848FA689B7892C93A089B1898C91ED
:10029000837080648C93938D848D981306C002883C
:1002A000F389E02D80818F7D80830895EF92FF9206
:1002B0000F931F93CF93DF93EC0181E0888F9B8D89
:1002C0008C8D98131AC0E889F989808185FF15C043
:1002D0009FB7F894EE89FF896083E889F989808166
:1002E0008370806480839FBF81E090E0DF91CF9135
:1002F0001F910F91FF90EF900895F62E0B8D10E057
:100300000F5F1F4F0F731127E02E8C8D8E110CC0C5
:100310000FB607FCFACFE889F989808185FFF5CF10
:10032000CE010E943401F1CFEB8DEC0FFD2FF11DBA
:10033000E35AFF4FF0829FB7F8940B8FEA89FB894D
:1003400080818062CFCFCF93DF93EC01888D8823AB
:10035000B9F0AA89BB89E889F9898C9185FD03C028
:10036000808186FD0DC00FB607FCF7CF8C9185FF0D
:10037000F2CF808185FFEDCFCE010E943401E9CF1D
:10038000DF91CF910895AF92BF92CF92DF92EF921B
:10039000FF920F931F93CF93DF936C017B018B012F
:1003A000040F151FEB015E01AE18BF08C017D1077F
:1003B00059F06991D601ED91FC910190F081E02D09
:1003C000C6010995892B79F7C501DF91CF911F915E
:1003D0000F91FF90EF90DF90CF90BF90AF90089576
:1003E0003FB7F89480911B0190911C01A0911D01D1
:1003F000B0911E0126B5A89B05C02F3F19F00196AC
:10040000A11DB11D3FBFBA2FA92F982F8827BC016E
:10041000CD01620F711D811D911D42E0660F771F96
:10042000881F991F4A95D1F708951F920F920FB612
:100430000F9211242F933F934F935F936F937F936A
:100440008F939F93AF93BF93EF93FF938FE191E0CF
:100450000E943401FF91EF91BF91AF919F918F91D5
:100460007F916F915F914F913F912F910F900FBEB0
:100470000F901F9018951F920F920FB60F92112494
:100480002F938F939F93EF93FF93E0912F01F09120
:1004900030018081E0913501F091360182FD1BC071
:1004A0009081809138018F5F8F732091390182177D
:1004B00041F0E0913801F0E0E15EFE4F958F8093CE
:1004C0003801FF91EF919F918F912F910F900FBE67
:1004D0000F901F9018958081F4CF1F920F920FB646
:1004E0000F9211242F933F938F939F93AF93BF93BA
:1004F0008091170190911801A0911901B0911A01F2
:100500003091160123E0230F2D3758F50196A11DD8
:10051000B11D209316018093170190931801A093A9
:100520001901B0931A0180911B0190911C01A091B7
:100530001D01B0911E010196A11DB11D80931B01EB
:1005400090931C01A0931D01B0931E01BF91AF9128
:100550009F918F913F912F910F900FBE0F901F9001
:10056000189526E8230F0296A11DB11DD2CFCF9377
:10057000DF93CDB7DEB7A1970FB6F894DEBF0FBEFD
:10058000CDBF789484B5826084BD84B5816084BD1C
:1005900085B5826085BD85B5816085BD80916E0021
:1005A000816080936E001092810080918100826052
:1005B000809381008091810081608093810080918F
:1005C00080008160809380008091B100846080937E
:1005D000B1008091B00081608093B00080917A007A
:1005E000846080937A0080917A00826080937A00A0
:1005F00080917A00816080937A0080917A0080688F
:1006000080937A001092C100E5EAF0E02491E1E9DC
:10061000F0E08491882399F090E0880F991FFC0105
:10062000EE58FF4FA591B491FC01E859FF4F859119
:1006300094918FB7F894EC91E22BEC938FBF4CE937
:10064000242E40E0342EF101249158E8E52E50E0AC
:10065000F52EF70184918823C9F090E0880F991F47
:10066000FC01EE58FF4FA591B491FC01E859FF4FF2
:10067000459154913FB7F8949C91822F809598238F
:100680009C93FA019081892380833FBFE0912F01E1
:10069000F091300182E08083E0912B01F0912C01F8
:1006A0001082E0912D01F0912E018FEC8083109249
:1006B0003701E0913301F091340186E08083E091CD
:1006C0003101F0913201808180618083E0913101BC
:1006D000F0913201808188608083E0913101F09156
:1006E0003201808180688083E0913101F091320194
:1006F00080818F7D80838E01005E1F4F20E0C22E9F
:1007000020E0D22EE0EBF0E08491F101B490F7010B
:10071000A490AA2009F468C081110E948C00EA2DDF
:10072000F0E0EE0FFF1FE458FF4FA591B4918C91BC
:10073000B82281E090E009F480E08093BC019093BE
:10074000BD0119A2805D88A3F80101900020E9F79E
:100750003197AF01401B510BB8018FE191E00E942E
:10076000C30142E050E062E171E08FE191E00E945C
:10077000C3018091BC019091BD010197C1F561E079
:100780008BE00E94B5000E94F0012B013C0188E83B
:10079000882E83E1982EA12CB12C0E94F0016419BF
:1007A000750986099709683E734081059105A8F38C
:1007B000F1E08F1A9108A108B10828EE420E23E05B
:1007C000521E611C711C81149104A104B10429F70B
:1007D000C114D10409F496CF0E942001882309F4A2
:1007E00091CF0E9400008ECF80E090E0A6CF60E025
:1007F0008BE00E94B500ECCFEFE1F1E013821282B2
:1008000088EE93E0A0E0B0E084839583A683B7836D
:1008100084E091E09183808385EC90E095878487E4
:1008200084EC90E09787868780EC90E0918B808BBA
:1008300081EC90E0938B828B82EC90E0958B848BA3
:1008400086EC90E0978B868B118E128E138E148E11
:100850000895EE0FFF1F0590F491E02D0994F89490
:02086000FFCFC8
:10086200000000005601C301E300A3011401F200DD
:0608720006010D0A000062
:00000001FF
