:100000000C9435000C945D000C945D000C945D0024
:100010000C945D000C945D000C945D000C945D00EC
:100020000C945D000C945D000C945D000C945D00DC
:100030000C945D000C945D000C945D000C945D00CC
:100040000C94F2020C945D000C94C0020C949A0281
:100050000C945D000C945D000C945D000C945D00AC
:100060000C945D000C945D003C0311241FBECFEF87
:10007000D8E0DEBFCDBF11E0A0E0B1E0ECE7FBE0EF
:1000800002C005900D92A634B107D9F722E0A6E48C
:10009000B1E001C01D92A030B207E1F710E0C5E366
:1000A000D0E004C02197FE010E94B605C433D107F9
:1000B000C9F70E949B030C94BC050C940000AF92FE
:1000C000BF92CF92DF92EF92FF920F931F93CF9345
:1000D000DF936C017B018B01040F151FEB015E01A7
:1000E000AE18BF08C017D10759F06991D601ED913C
:1000F000FC910190F081E02DC6010995892B79F7DB
:10010000C501DF91CF911F910F91FF90EF90DF908C
:10011000CF90BF90AF900895FC01538D448D252F53
:1001200030E0842F90E0821B930B541710F0CF9691
:10013000089501970895FC01918D828D981761F0C3
:10014000A28DAE0FBF2FB11D5D968C91928D9F5FDA
:100150009F73928F90E008958FEF9FEF0895FC01B9
:10016000918D828D981731F0828DE80FF11D858D6C
:1001700090E008958FEF9FEF0895FC01918D228DFF
:10018000892F90E0805C9F4F821B91098F73992784
:10019000089583E591E00E94BD0021E0892B09F4D8
:1001A00020E0822F089580E090E0892B29F00E94C2
:1001B000C90081110C9400000895FC01A48DA80FC2
:1001C000B92FB11DA35ABF4F2C91848D90E0019699
:1001D0008F739927848FA689B7892C93A089B189B9
:1001E0008C91837080648C93938D848D981306C05A
:1001F0000288F389E02D80818F7D80830895EF92BE
:10020000FF920F931F93CF93DF93EC0181E0888FD0
:100210009B8D8C8D98131AC0E889F989808185FFA0
:1002200015C09FB7F894EE89FF896083E889F98942
:1002300080818370806480839FBF81E090E0DF9144
:10024000CF911F910F91FF90EF900895F62E0B8D97
:1002500010E00F5F1F4F0F731127E02E8C8D8E1152
:100260000CC00FB607FCFACFE889F989808185FFB9
:10027000F5CFCE010E94DD00F1CFEB8DEC0FFD2F0D
:10028000F11DE35AFF4FF0829FB7F8940B8FEA8974
:10029000FB8980818062CFCFCF93DF93EC01888D83
:1002A0008823B9F0AA89BB89E889F9898C9185FDF1
:1002B00003C0808186FD0DC00FB607FCF7CF8C917F
:1002C00085FFF2CF808185FFEDCFCE010E94DD005A
:1002D000E9CFDF91CF9108953FB7F89480914B011A
:1002E00090914C01A0914D01B0914E0126B5A89B73
:1002F00005C02F3F19F00196A11DB11D3FBFBA2FB8
:10030000A92F982F8827BC01CD01620F711D811D77
:10031000911D42E0660F771F881F991F4A95D1F7FC
:1003200008958F929F92AF92BF92CF92DF92EF92F9
:10033000FF926B017C010E946C014B015C01C114B6
:10034000D104E104F104B9F00E946C016819790943
:100350008A099B09683E73408105910580F321E07D
:10036000C21AD108E108F10888EE880E83E0981ED1
:10037000A11CB11CE4CFFF90EF90DF90CF90BF9015
:10038000AF909F908F9008952FB7F8946091470198
:10039000709148018091490190914A012FBF0895C1
:1003A000CF92DF92EF92FF920F931F938091FA0109
:1003B0009091FB018230910509F44DC08330910585
:1003C000B1F0019709F05AC00E946C010091FC0144
:1003D0001091FD012091FE013091FF016B017C0124
:1003E000C01AD10AE20AF30AA701960114C00E94BA
:1003F000C4010091FC011091FD012091FE0130919A
:10040000FF01601B710B820B930B20E63AEE40E07C
:1004100050E00E9485058091F0019091F101A0913A
:10042000F201B091F301281739074A075B0748F535
:10043000821B930BA40BB50B8093F4019093F501F1
:10044000A093F601B093F7011F910F91FF90EF90E9
:10045000DF90CF9008950E94C4010091FC0110919B
:10046000FD012091FE013091FF01601B710B820B99
:10047000930B28EE33E040E050E0CBCF0E94C40164
:10048000A5CF80E090E0DC01D7CFFC0101900020F7
:10049000E9F73197AF01481B590BBC0183E591E0A7
:1004A0000C945F00CF92DF92EF92FF920F931F9315
:1004B000CF93DF93CDB7DEB7A1970FB6F894DEBF29
:1004C0000FBECDBF9B01AC0119A28E010F5D1F4F66
:1004D0008AE0C82ED12CE12CF12CCA01B901A70168
:1004E00096010E948505605DF80162938F012115D8
:1004F00031054105510589F73097C9F0CF010E94B8
:1005000045028C0186E191E00E944502800F911F17
:10051000A1960FB6F894DEBF0FBECDBFDF91CF918D
:100520001F910F91FF90EF90DF90CF90089510E012
:1005300000E0E8CF1F920F920FB60F9211242F9375
:100540003F934F935F936F937F938F939F93AF935B
:10055000BF93EF93FF9383E591E00E94DD00FF914D
:10056000EF91BF91AF919F918F917F916F915F912B
:100570004F913F912F910F900FBE0F901F901895A4
:100580001F920F920FB60F9211242F938F939F9368
:10059000EF93FF93E0916301F09164018081E0911A
:1005A0006901F0916A0182FD1BC0908180916C010C
:1005B0008F5F8F7320916D01821741F0E0916C0184
:1005C000F0E0ED5AFE4F958F80936C01FF91EF9113
:1005D0009F918F912F910F900FBE0F901F901895A4
:1005E0008081F4CF1F920F920FB60F9211242F9398
:1005F0003F938F939F93AF93BF93809147019091C7
:100600004801A0914901B0914A013091460123E08F
:10061000230F2D3758F50196A11DB11D20934601DA
:100620008093470190934801A0934901B0934A01F8
:1006300080914B0190914C01A0914D01B0914E01E0
:100640000196A11DB11D80934B0190934C01A09385
:100650004D01B0934E01BF91AF919F918F913F910A
:100660002F910F900FBE0F901F90189526E8230F23
:100670000296A11DB11DD2CF1092560110925501C4
:1006800088EE93E0A0E0B0E080935701909358018A
:10069000A0935901B0935A0188E091E090935401DE
:1006A0008093530185EC90E09093600180935F010B
:1006B00084EC90E0909362018093610180EC90E083
:1006C000909364018093630181EC90E090936601C4
:1006D0008093650182EC90E09093680180936701BC
:1006E00086EC90E090936A018093690110926C010E
:1006F00010926D0110926E0110926F0183E090E0F4
:100700009093FB018093FA011092F0011092F10195
:100710001092F2011092F3018091F8019091F90189
:10072000892B11F40E94D00181E090E09093F901AF
:100730008093F8010895789484B5826084BD84B56F
:10074000816084BD85B5826085BD85B5816085BDCC
:1007500080916E00816080936E0010928100809184
:10076000810082608093810080918100816080930C
:100770008100809180008160809380008091B10031
:1007800084608093B1008091B00081608093B0005C
:1007900080917A00846080937A0080917A008260F0
:1007A00080937A0080917A00816080937A008091B2
:1007B0007A00806880937A001092C100E091630112
:1007C000F091640182E08083E0915F01F09160012B
:1007D0001082E0916101F091620180E180831092CA
:1007E0006B01E0916701F091680186E08083E09100
:1007F0006501F0916601808180618083E0916501EF
:10080000F0916601808188608083E0916501F091BC
:100810006601808180688083E0916501F0916601C6
:1008200080818F7D808389E191E00E94450286E18D
:1008300091E00E9445020E94FB0420ED37E040E079
:1008400050E00E9453050E9491010E94C4016B0177
:100850007C01C0924F01D0925001E0925101F09280
:1008600052018AE090E0A0E0B0E08093F001909324
:10087000F101A093F201B093F3011092F9011092EB
:10088000F8018091FA019091FB01019709F042C0B3
:100890000E946C016093FC017093FD018093FE0146
:1008A0009093FF01C701B6010E945202C1E0D0E05F
:1008B0008091F8019091F901892B11F40E94D001E7
:1008C0008091F4019091F501A091F601B091F701AA
:1008D000892B8A2B8B2B09F581E090E09093F9010D
:1008E0008093F80160E070E0CB010E94520287E340
:1008F00091E00E94450286E191E00E944502C0E03D
:10090000D0E02097F1F30E94C9008823D1F30E9420
:100910000000F7CF0E94C401BDCF8091F8019091F3
:10092000F901892B11F40E94D0016091F4017091BA
:10093000F5018091F6019091F7016115710581052E
:10094000910521F4D093F901C093F8010E9452025D
:1009500068EE73E080E090E00E949101A9CF8F9251
:100960009F92AF92BF92CF92DF92EF92FF92CF937E
:10097000DF93EC01688179818A819B816115710522
:100980008105910521F464E279ED8BE597E02DE195
:1009900033EF41E050E00E94530549015A019B01A9
:1009A000AC01A7EAB1E40E9472056B017C01ACEED8
:1009B000B4EFA50194010E948005C60ED71EE81E63
:1009C000F91EF7FE06C081E0C81AD108E10880E8E8
:1009D000F80AC882D982EA82FB82C701B6019F77F2
:1009E000DF91CF91FF90EF90DF90CF90BF90AF90CD
:1009F0009F908F9008958F929F92AF92BF92CF92C7
:100A0000DF92EF92FF92609100017091010180915D
:100A1000020190910301611571058105910521F491
:100A200064E279ED8BE597E02DE133EF41E050E0B2
:100A30000E94530549015A019B01AC01A7EAB1E4A8
:100A40000E9472056B017C01ACEEB4EFA50194012C
:100A50000E948005C60ED71EE81EF91EF7FE06C0CE
:100A600081E0C81AD108E10880E8F80AC0920001C4
:100A7000D0920101E0920201F0920301C701B60198
:100A80009F77FF90EF90DF90CF90BF90AF909F90B7
:100A90008F9008956093000170930101809302018B
:100AA000909303010895052E97FB1EF400940E9475
:100AB0006A0557FD07D00E94850507FC03D04EF458
:100AC0000C946A0550954095309521953F4F4F4FB6
:100AD0005F4F089590958095709561957F4F8F4FEA
:100AE0009F4F08950E94A705A59F900DB49F900D5C
:100AF000A49F800D911D11240895B7FF0C947205D9
:100B00000E947205821B930B0895A1E21A2EAA1B64
:100B1000BB1BFD010DC0AA1FBB1FEE1FFF1FA217AD
:100B2000B307E407F50720F0A21BB30BE40BF50BAA
:100B3000661F771F881F991F1A9469F76095709533
:100B4000809590959B01AC01BD01CF010895A29FB6
:100B5000B001B39FC001A39F700D811D1124911D91
:100B6000B29F700D811D1124911D0895EE0FFF1F7E
:0C0B70000590F491E02D0994F894FFCF5B
:100B7C000100000000000000FF005F008C004C0131
:100B8C00BD009B00AF000D0A002E2E2F2E2E2F30F5
:100B9C00332E4D65646963696E6552656D696E646B
:100BAC0065722E6370700054616B65204D656469CD
:060BBC0063696E65000094
:00000001FF
