:100000000C9461000C9473000C9473000C947300B6
:100010000C9473000C9473000C9473000C94730094
:100020000C9473000C9473000C9473000C94730084
:100030000C9473000C9473000C9473000C94730074
:100040000C9435010C9473000C9473000C947300A1
:100050000C9473000C9473000C9473000C94730054
:100060000C9473000C94730000000000240027001F
:100070002A000000000023002600290000000000E4
:10008000250028002B0004040404040404040202D4
:100090000202020203030303030301020408102007
:1000A0004080010204081020010204081020000012
:1000B0000008000201000003040700000000000027
:1000C000000011241FBECFEFD8E0DEBFCDBF21E07E
:1000D000A0E0B1E001C01D92AE31B207E1F70E948D
:1000E0007F010C9407030C940000833081F028F406
:1000F000813099F08230A9F008958730A9F08830D6
:10010000C9F08430B1F4809180008F7D03C080916C
:1001100080008F7780938000089584B58F7784BDA9
:10012000089584B58F7DFBCF8091B0008F77809349
:10013000B00008958091B0008F7DF9CF1F93CF93C9
:10014000DF93EBEBF0E09491E7EAF0E0D491E3E9A0
:10015000F0E0C491CC23B9F0182F992319F0892F1E
:100160000E947500EC2FF0E0EE0FFF1FE458FF4FE8
:10017000A591B4918FB7F894EC91111108C0D09566
:10018000DE23DC938FBFDF91CF911F910895DE2B8B
:10019000F8CF80E00C949E003FB7F8948091050161
:1001A00090910601A0910701B091080126B5A89B86
:1001B00005C02F3F19F00196A11DB11D3FBFBA2FF9
:1001C000A92F982F8827BC01CD01620F711D811DB9
:1001D000911D42E0660F771F881F991F4A95D1F73E
:1001E00008952FB7F89460910101709102018091F8
:1001F0000301909104012FBF08958F929F92AF92B7
:10020000BF92CF92DF92EF92FF920E94CC004B01FF
:100210005C0188E8C82E83E1D82EE12CF12C0E94E5
:10022000CC00681979098A099B09683E73408105E9
:100230009105A8F321E0C21AD108E108F10888EE7F
:10024000880E83E0981EA11CB11CC114D104E104E6
:10025000F10429F781E0FF90EF90DF90CF90BF90FD
:10026000AF909F908F900C949E001F920F920FB6AC
:100270000F9211242F933F938F939F93AF93BF932C
:100280008091010190910201A0910301B0910401BC
:100290003091000123E0230F2D3758F50196A11D61
:1002A000B11D209300018093010190930201A0935E
:1002B0000301B09304018091050190910601A09182
:1002C0000701B09108010196A11DB11D80930501A0
:1002D00090930601A0930701B0930801BF91AF91DD
:1002E0009F918F913F912F910F900FBE0F901F9074
:1002F000189526E8230F0296A11DB11DD2CF789440
:1003000084B5826084BD84B5816084BD85B582601A
:1003100085BD85B5816085BD80916E0081608093CB
:100320006E00109281008091810082608093810034
:100330008091810081608093810080918000816044
:10034000809380008091B10084608093B10080919F
:10035000B00081608093B00080917A0084608093C7
:100360007A0080917A00826080937A0080917A008E
:10037000816080937A0080917A00806880937A000F
:100380001092C100E7EAF0E02491E3E9F0E0849103
:10039000882399F090E0880F991FFC01E859FF4FDE
:1003A000A591B491FC01E458FF4F859194918FB7CA
:1003B000F894EC91E22BEC938FBFECE9F0E0249100
:1003C000E8E8F0E084918823C1F090E0880F991F5D
:1003D000FC01E859FF4FC591D491FC01E458FF4F4F
:1003E000A591B4919FB7F8943881822F809583238B
:1003F0008883EC91E22BEC939FBF82E08093130102
:10040000109218011092190182E390E0A0E0B0E090
:100410008093140190931501A0931601B0931701D6
:1004200089EC90E090931B0180931A018DEF90E08E
:1004300090931D0180931C01809112018C7F846038
:10044000809312011092110110920D0110920E0171
:1004500010920F01109210010E94F10060930901A7
:1004600070930A0180930B0190930C01C0E0D0E0DF
:1004700001E02091130130E0F901E255FF4F849132
:10048000F901E656FF4FF490F901EA57FF4F149136
:10049000112309F482C081110E947500E12FF0E060
:1004A000EE0FFF1FEE58FF4FA591B491EC91FE2285
:1004B00031E020E009F430E0832F922F20911801E1
:1004C0002817190609F06CC00E94F100C0900901BC
:1004D000D0900A01E0900B01F0900C016C197D099D
:1004E0008E099F09C0901401D0901501E09016016B
:1004F000F09017016C157D058E059F0520F4809105
:10050000120180FF44C0809112018B7F8093120101
:100510000093110181FD09C0E0911A01F0911B01C6
:10052000309719F089E091E00995809119018111C6
:1005300005C08091120182608093120180911201A6
:1005400080FD0FC00E94F1006093090170930A01C1
:1005500080930B0190930C01809112018160809334
:1005600012010E94F100C0900901D0900A01E090B0
:100570000B01F0900C016C197D098E099F096093A5
:100580000D0170930E0180930F019093100120973D
:1005900009F46FCF0E9400006CCF90E080E08ECF16
:1005A0000E94F100C0900901D0900A01E0900B0177
:1005B000F0900C016C197D098E099F0960930D0163
:1005C00070930E0180930F01909310010E94F1002F
:1005D0006093090170930A0180930B0190930C01C1
:1005E000809112018D7F8E7F8093120110921101F4
:1005F00082FDCDCF846080931201E0911C01F091C7
:100600001D01309721F289E091E00995C0CFF8945F
:02061000FFCF1A
:00000001FF
