:100000000C945C000C9479000C9479000C947900A9
:100010000C9479000C9479000C9479000C9479007C
:100020000C9479000C9479000C9479000C9479006C
:100030000C9479000C9479000C9479000C9479005C
:100040000C94F8000C9479000C9479000C947900CD
:100050000C9479000C9479000C9479000C9479003C
:100060000C9479000C947900000000002400270013
:100070002A0000000000250028002B0004040404CE
:100080000404040402020202020203030303030342
:10009000010204081020408001020408102001021F
:1000A00004081020000000080002010000030407FB
:1000B000000000000000000011241FBECFEFD8E0B8
:1000C000DEBFCDBF11E0A0E0B1E0E6EAF7E002C09C
:1000D00005900D92A030B107D9F721E0A0E0B1E082
:1000E00001C01D92AB30B207E1F70E9442010C94AF
:1000F000D1030C94000090E0FC01EC55FF4F2491DB
:10010000FC01E057FF4F3491FC01E458FF4FE491AC
:10011000EE23C9F0222339F0233001F1A8F4213075
:1001200019F1223029F1F0E0EE0FFF1FEE58FF4FDA
:10013000A591B4918FB7F894EC91611126C03095D8
:100140003E233C938FBF08952730A9F02830C9F093
:10015000243049F7809180008F7D03C0809180001A
:100160008F7780938000DFCF84B58F7784BDDBCF1E
:1001700084B58F7DFBCF8091B0008F778093B000E6
:10018000D2CF8091B0008F7DF9CF3E2BDACFCF93C5
:10019000DF9390E0FC01E057FF4F249184589F4F7C
:1001A000FC0184918823D1F090E0880F991FFC0115
:1001B000E859FF4FA591B491FC01EE58FF4FC5914E
:1001C000D49161110EC09FB7F8948C91E22FE09505
:1001D0008E238C932881E223E8839FBFDF91CF9108
:1001E00008958FB7F894EC91E22BEC938FBFF6CF84
:1001F0001F920F920FB60F9211242F933F938F935C
:100200009F93AF93BF938091070190910801A091B4
:100210000901B0910A013091060123E0230F2D3727
:1002200058F50196A11DB11D209306018093070189
:1002300090930801A0930901B0930A0180910201F3
:1002400090910301A0910401B09105010196A11DB7
:10025000B11D8093020190930301A0930401B09318
:100260000501BF91AF919F918F913F912F910F9079
:100270000FBE0F901F90189526E8230F0296A11D20
:10028000B11DD2CF789484B5826084BD84B581607D
:1002900084BD85B5826085BD85B5816085BD809151
:1002A0006E00816080936E001092810080918100C9
:1002B00082608093810080918100816080938100C1
:1002C000809180008160809380008091B100846083
:1002D0008093B1008091B00081608093B0008091E4
:1002E0007A00846080937A0080917A0082608093A3
:1002F0007A0080917A00816080937A0080917A0000
:10030000806880937A001092C10061E08BE00E94C7
:10031000C70061E088E00E94C70060E08FE00E94B3
:10032000C70081E4982E98E2492E512C612C712C43
:100330002FEAA22E20E0B22E00E010E090927C0086
:1003400080917A00806480937A0080917A0086FDA3
:10035000FCCF8091780060917900762F682F072E6E
:10036000000C880B990B0E94D80220E030E04AEF85
:100370005EE30E943C030E94A0027093010160931F
:1003800000016E3171050CF058C060E08BE00E94F6
:100390007B00809100019091010161E0873491051B
:1003A0000CF460E088E00E947B000115110531F239
:1003B0000E940000C3CFF5018491833021F148F4FD
:1003C0008130B9F08230D1F0C038D1050CF05BC07B
:1003D000DCCF873011F1883041F18430A9F780916A
:1003E0008000806280938000D0928B00C0928A004F
:1003F000D0CF84B5806884BDC7BCCBCF84B58062C4
:1004000084BDC8BCC6CF8091800080688093800086
:10041000D0928900C0928800BCCF8091B0008068E3
:100420008093B000C092B300B4CF8091B0008062DE
:100430008093B000C092B400ACCF673471050CF06B
:10044000A8CF072E000C880B990B9B01AC012E51F5
:10045000310941095109AFEDB0E00E946402A301E6
:1004600092010E94450269017A0180E2C80ED11C06
:10047000E11CF11CE60161E08BE00E94C700CF3F68
:10048000D10509F098CF61E081CF052E97FB1EF4CE
:1004900000940E945C0257FD07D00E946F0207FC87
:1004A00003D04EF40C945C02509540953095219504
:1004B0003F4F4F4F5F4F0895909580957095619590
:1004C0007F4F8F4F9F4F08950E949102A59F900DDF
:1004D000B49F900DA49F800D911D11240895A1E259
:1004E0001A2EAA1BBB1BFD010DC0AA1FBB1FEE1FAE
:1004F000FF1FA217B307E407F50720F0A21BB30BF9
:10050000E40BF50B661F771F881F991F1A9469F774
:1005100060957095809590959B01AC01BD01CF01D0
:100520000895A29FB001B39FC001A39F700D811DCC
:100530001124911DB29F700D811D1124911D0895EC
:100540000E94A7026894B1110C94360308950E948A
:100550001B0388F09F5798F0B92F9927B751B0F037
:10056000E1F0660F771F881F991F1AF0BA95C9F737
:1005700014C0B13091F00E943503B1E008950C949D
:100580003503672F782F8827B85F39F0B93FCCF350
:10059000869577956795B395D9F73EF490958095B4
:1005A000709561957F4F8F4F9F4F0895E89409C0D4
:1005B00097FB3EF490958095709561957F4F8F4F96
:1005C0009F4F9923A9F0F92F96E9BB279395F695AC
:1005D000879577956795B795F111F8CFFAF4BB0F2A
:1005E00011F460FF1BC06F5F7F4F8F4F9F4F16C08E
:1005F000882311F096E911C0772321F09EE8872F18
:10060000762F05C0662371F096E8862F70E060E0D3
:100610002AF09A95660F771F881FDAF7880F96954C
:10062000879597F9089557FD9058440F551F59F035
:100630005F3F71F04795880F97FB991F61F09F3FCF
:1006400079F087950895121613061406551FF2CFF8
:100650004695F1DF08C0161617061806991FF1CF48
:1006600086957105610508940895E894BB2766276F
:100670007727CB0197F908950E944F030C94C0038C
:100680000E94B20338F00E94B90320F0952311F0C4
:100690000C94A9030C94AF0311240C9436030E940C
:1006A000130370F3959FC1F3950F50E0551F629FA0
:1006B000F001729FBB27F00DB11D639FAA27F00DBB
:1006C000B11DAA1F649F6627B00DA11D661F829FE2
:1006D0002227B00DA11D621F739FB00DA11D621FC7
:1006E000839FA00D611D221F749F3327A00D611DE4
:1006F000231F849F600D211D822F762F6A2F1124C6
:100700009F5750409AF0F1F088234AF0EE0FFF1FF8
:10071000BB1F661F771F881F91505040A9F79E3F4F
:10072000510580F00C94A9030C9436035F3FE4F369
:10073000983ED4F3869577956795B795F795E795A5
:100740009F5FC1F7FE2B880F911D9695879597F9AE
:10075000089597F99F6780E870E060E008959FEF43
:1007600080EC089500240A94161617061806090648
:10077000089500240A941216130614060506089517
:10078000092E0394000C11F4882352F0BB0F40F49F
:10079000BF2B11F460FF04C06F5F7F4F8F4F9F4FDF
:0607A0000895F894FFCF5C
:00000001FF
