:100000000C945D000C9485000C9485000C94850084
:100010000C9485000C9485000C9485000C9485004C
:100020000C9485000C9485000C9485000C9485003C
:100030000C9485000C9485000C9485000C9485002C
:100040000C9422020C9485000C9485000C9485007D
:100050000C9485000C9485000C9485000C9485000C
:100060000C9485000C94850000000008000201003B
:100070000003040700000000000000000000000072
:10008000250028002B0000000000240027002A0083
:10009000040404040404040402020202020203032E
:1000A0000303030301020408102040800102040836
:1000B00010200102040810209A0311241FBECFEF64
:1000C000D8E0DEBFCDBF11E0A0E0B1E0E4EAF8E0A7
:1000D00002C005900D92A431B107D9F721E0A4E147
:1000E000B1E001C01D92AB33B207E1F710E0CDE5FE
:1000F000D0E004C02197FE010E943F04CC35D10717
:10010000C9F70E946C020C9450040C94000090E01B
:10011000FC01EC55FF4F249180579F4FFC018491C7
:10012000882399F090E0880F991FFC01EA57FF4F50
:10013000A591B491FC01E458FF4F859194918FB73C
:10014000F894EC91E22BEC938FBF089590E0FC01C2
:10015000E859FF4F2491FC01EC55FF4F3491FC010D
:10016000E057FF4FE491EE23C9F0222339F023300A
:1001700001F1A8F4213019F1223029F1F0E0EE0F5D
:10018000FF1FE458FF4FA591B4918FB7F894EC91FD
:10019000611126C030953E233C938FBF08952730D0
:1001A000A9F02830C9F0243049F7809180008F7D74
:1001B00003C0809180008F7780938000DFCF84B56B
:1001C0008F7784BDDBCF84B58F7DFBCF8091B0006E
:1001D0008F778093B000D2CF8091B0008F7DF9CF20
:1001E0003E2BDACF0F931F93CF93DF93C82F9091BD
:1001F0002101892F8695869586958F3141F08C9FB8
:10020000E001112485E0D695C7958A95E1F792FD26
:10021000C09580911F01811107C0809120010E942B
:10022000870081E080931F010C2F10E0D091200106
:100230008D2F0E9487000115110541F460E08D2F7C
:10024000DF91CF911F910F910C94A6000F3F1105E4
:1002500011F461E0F4CFED2FF0E0E859FF4FE491A5
:10026000E33039F140F4E130B1F0E230E9F0003848
:1002700011057CF7E3CFE73031F1E83061F1E4308C
:10028000B1F78091800080628093800010938B0092
:1002900000938A0004C084B5806884BDC7BDDF9127
:1002A000CF911F910F91089584B5806284BDC8BD20
:1002B000F6CF809180008068809380001093890041
:1002C00000938800ECCF8091B00080688093B000EC
:1002D000C093B300E4CF8091B00080628093B000FF
:1002E000C093B400DCCFCF92DF92EF92FF920F93D6
:1002F0001F93CF93DF939A0150E040E06B017C01A4
:10030000EFEFCE1ADE0AEE0AFE0AC216D306E406A4
:10031000F50608F047C0982F872F762F66270E9492
:100320000604DA01C9019927AA27BB276C017D01C0
:10033000F5E0F694E794D794C794FA95D1F7F601CF
:10034000E65FFE4FE0816FEFC61AD60AE60AF60AAC
:10035000E601C65FDE4F68816E1B770B89019A014B
:10036000007E1127222733276C017D01C01AD10A94
:10037000E20AF30AA7019601DB010E943704DC01BF
:10038000CB01C5E0B695A79597958795CA95D1F706
:100390008E0FDF91CF911F910F91FF90EF90DF9023
:1003A000CF9008958FEFF5CFCF92DF92EF92FF922B
:1003B0000F931F938A019B01FC0142815381CA0163
:1003C000B0E0A0E068017B01FFEFCF1ADF0AEF0A7F
:1003D000FF0AC816D906EA06FB06D8F456954795D3
:1003E0006A01F12CE12C0C151D052E053F0550F47A
:1003F000C901B8011F910F91FF90EF90DF90CF904E
:100400000C947301BC01CD01601B710B820B930B2B
:10041000F1CF80E01F910F91FF90EF90DF90CF9090
:100420000895FC0182819381089524E031E0FB016D
:1004300031832083FC0182819381FB01938382833A
:10044000CB0108951F920F920FB60F9211242F9394
:100450003F938F939F93AF93BF9380911901909196
:100460001A01A0911B01B0911C013091180123E0E9
:10047000230F2D3758F50196A11DB11D20931801AA
:100480008093190190931A01A0931B01B0931C0152
:100490008091140190911501A0911601B09117015E
:1004A0000196A11DB11D8093140190931501A09395
:1004B0001601B0931701BF91AF919F918F913F911A
:1004C0002F910F900FBE0F901F90189526E8230FC5
:1004D0000296A11DB11DD2CF789484B5826084BDEF
:1004E00084B5816084BD85B5826085BD85B5816038
:1004F00085BD80916E00816080936E0010928100B6
:100500008091810082608093810080918100816070
:100510008093810080918000816080938000809131
:10052000B10084608093B1008091B00081608093BD
:10053000B00080917A00846080937A0080917A0084
:10054000826080937A0080917A00816080937A0043
:1005500080917A00806880937A001092C10000E058
:1005600010E08FB7F894C0901901D0901A01E09074
:100570001B01F0901C018FBF80912101837009F451
:10058000BDC080911D0190911E01009709F4B6C075
:1005900040912F01509130016091310170913201F1
:1005A0004C155D056E057F0509F4A8C04F3F5F4FF0
:1005B0006F4F7F4F91F42091370130913801B7018F
:1005C000A601420F531F611D711D409333015093CB
:1005D00034016093350170933601C0922F01D0929F
:1005E0003001E0923101F09232014091330150919B
:1005F00034016091350170913601C416D506E606C6
:10060000F70608F47BC0DC01ED91FC910190F081CC
:10061000E02D0995EC018091330190913401A09176
:100620003501B0913601A7019601281B390B4A0B01
:100630005B0BCA01B9012091390130913A012C0FAD
:100640003D1F50E040E00E940604AB01BC01CE011A
:10065000B0E0A0E0481759076A077B0708F055C0CB
:10066000809121018C7F81608093210180911D0107
:1006700090911E01DC01ED91FC910280F381E02D4F
:1006800009950E94F200A0912D01B0912E01AF3F7B
:10069000BA07A1F12091390130913A012C0F3D1F89
:1006A0000E9428048090330190903401A09035017D
:1006B000B090360131E0831A9108A108B108860E86
:1006C000971EA81EB91EC814D904EA04FB04B0F092
:1006D000809121018C7F8093210180911D01909157
:1006E0001E012197AE0170E060E0DC01ED91FC910C
:1006F0000280F381E02D09950E94F2000115110599
:1007000009F42FCF0E9400002CCF80912101982F57
:100710009370913009F0B7CF8C7F82608093210174
:1007200080911D0190911E01AE014150510970E070
:1007300060E0A0CFFF920F931F93CF93DF93CDB7CD
:10074000DEB76E970FB6F894DEBF0FBECDBF1B822B
:1007500089E08C8389EFF82EFD824FEF5FEFBA01BD
:100760004B8B5C8B6D8B7E8B4F8B588F698F7A8F09
:100770001C8E1B8E84E091E09F838E8320ED37E0FA
:1007800039872887CE0106969A838983E5E0F0E0D1
:10079000FA8BE98B3E8F2D8F0DE111E0D801119678
:1007A0001C921E9252964D935D936D937C93559738
:1007B00056964D935D936D937C9359975B961C92DF
:1007C0001E925A971496FC9214975196FC93EE93AE
:1007D00050975D963C932E935C972B813C811396AA
:1007E0003C932E93129762E271E00E941502F80189
:1007F000918380836E960FB6F894DEBF0FBECDBF97
:10080000DF91CF911F910F91FF900895A1E21A2ED1
:10081000AA1BBB1BFD010DC0AA1FBB1FEE1FFF1FA4
:10082000A217B307E407F50720F0A21BB30BE40BF4
:10083000F50B661F771F881F991F1A9469F760953B
:100840007095809590959B01AC01BD01CF010895F5
:10085000A29FB001B39FC001A39F700D811D112401
:10086000911DB29F700D811D1124911D0895B7FF38
:100870000C9445040E944504821B930B0895EE0FCF
:10088000FF1F0590F491E02D09940E942804A59F74
:10089000900DB49F900DA49F800D911D112408957B
:0408A000F894FFCFFA
:1008A400000000001102D401150200030D2144765A
:0408B400B3E8FF00A6
:00000001FF
