:100000000C9434000C9449000C9449000C94490061
:100010000C9449000C9449000C9449000C9449003C
:100020000C9449000C9449000C9449000C9449002C
:100030000C9449000C9449000C9449000C9449001C
:100040000C9449000C9449000C9449000C9449000C
:100050000C9449000C9449000C9449000C944900FC
:100060000C9449000C94490011241FBECFEFD8E036
:10007000DEBFCDBF11E0A0E0B1E0E6EEF0E002C0EF
:1000800005900D92A630B107D9F70E944B000C9451
:1000900071000C940000CF93DF9300D000D000D00B
:1000A000CDB7DEB78FEF8AB98BB986E0E0E0F1E03B
:1000B000DE01119601900D928A95E1F7CE01079627
:1000C000FE01319621912BB92FEF3BE742E92150F8
:1000D00030404040E1F700C00000E817F90791F711
:0600E000EFCFF894FFCF02
:0600E60081B7C292B4983C
:00000001FF
