:100000000C945D000C947A000C947A000C947A00A5
:100010000C947A000C947A000C947A000C947A0078
:100020000C947A000C947A000C947A000C947A0068
:100030000C947A000C947A000C947A000C947A0058
:100040000C946B010C947A000C947A000C947A0056
:100050000C947A000C947A000C947A000C947A0038
:100060000C947A000C947A00000000080002010051
:100070000003040700000000000000000000000072
:10008000250028002B0000000000240027002A0083
:10009000040404040404040402020202020203032E
:1000A0000303030301020408102040800102040836
:1000B00010200102040810201D0211241FBECFEFE2
:1000C000D8E0DEBFCDBF21E0A0E0B1E001C01D92CD
:1000D000AD30B207E1F710E0CDE5D0E004C02197E4
:1000E000FE010E944902CC35D107C9F70E94B50133
:1000F0000C944F020C94000090E0FC01EC55FF4F73
:10010000249180579F4FFC018491882399F090E0BF
:10011000880F991FFC01EA57FF4FA591B491FC018C
:10012000E458FF4F859194918FB7F894EC91E22BAE
:10013000EC938FBF089590E0FC01E859FF4F2491A4
:10014000FC01EC55FF4F3491FC01E057FF4FE49167
:10015000EE23C9F0222339F0233001F1A8F4213035
:1001600019F1223029F1F0E0EE0FFF1FE458FF4FA4
:10017000A591B4918FB7F894EC91611126C0309598
:100180003E233C938FBF08952730A9F02830C9F053
:10019000243049F7809180008F7D03C080918000DA
:1001A0008F7780938000DFCF84B58F7784BDDBCFDE
:1001B00084B58F7DFBCF8091B0008F778093B000A6
:1001C000D2CF8091B0008F7DF9CF3E2BDACFEF9266
:1001D000FF920F931F93CF93DF937C018B01EA0172
:1001E0002FB7F89460910501709106018091070185
:1001F000909108012FBF20910B0130910C01032E2B
:10020000000C440B550B0E9427026E157F050CF461
:100210003CC006171707CCF10091090110910A01A3
:10022000802F0E947C00CF3FD10511F461E010C007
:10023000F801FF27E859FF4FE491E33091F188F48A
:10024000E130F9F0E23041F160E0C038D10574F7F7
:10025000802FDF91CF911F910F91FF90EF900C9421
:100260009B00E73041F1E83071F1E43069F78091AB
:100270008000806280938000D0938B00C0938A00BE
:1002800004C084B5806884BDC7BDDF91CF911F9144
:100290000F91FF90EF90089584B5806284BDC8BD32
:1002A000F4CF80918000806880938000D093890093
:1002B000C0938800EACF8091B00080688093B0003E
:1002C000C093B300E2CF8091B00080628093B00011
:1002D000C093B400DACF1F920F920FB60F92112481
:1002E0002F933F938F939F93AF93BF93809105017B
:1002F00090910601A0910701B0910801309104018D
:1003000023E0230F2D3758F50196A11DB11D209331
:1003100004018093050190930601A0930701B09317
:1003200008018091000190910101A0910201B0911A
:1003300003010196A11DB11D80930001909301015D
:10034000A0930201B0930301BF91AF919F918F9150
:100350003F912F910F900FBE0F901F90189526E898
:10036000230F0296A11DB11DD2CF789484B582606F
:1003700084BD84B5816084BD85B5826085BD85B549
:10038000816085BD80916E00816080936E001092C7
:100390008100809181008260809381008091810042
:1003A00081608093810080918000816080938000D3
:1003B0008091B10084608093B1008091B000816031
:1003C0008093B00080917A00846080937A0080915D
:1003D0007A00826080937A0080917A0081608093B5
:1003E0007A0080917A00806880937A001092C10030
:1003F00088EE93E090930C0180930B01C0E0D0E075
:1004000041E450E06CE271E090E080E00E94E7009F
:100410004DE750E068E572E08CE291E00E94E70071
:100420004FEF50E068EE73E088E592E00E94E7004D
:10043000209731F30E940000E3CFE9E0F1E08BE088
:1004400090E091838083138212820C947C00A1E25D
:100450001A2EAA1BBB1BFD010DC0AA1FBB1FEE1F3E
:10046000FF1FA217B307E407F50720F0A21BB30B89
:10047000E40BF50B661F771F881F991F1A9469F705
:1004800060957095809590959B01AC01BD01CF0161
:100490000895EE0FFF1F0590F491E02D0994F89454
:0204A000FFCF8C
:00000001FF
