:100000000C9458000C9480000C9480000C946104B3
:100010000C9461040C9461040C9480000C94800096
:100020000C9480000C9480000C9480000C94800050
:100030000C9480000C9480000C9480000C94800040
:100040000C94FC020C9480000C94CA020C94A40240
:100050000C9480000C9480000C9480000C94800020
:100060000C9446030C94800000000000250028003A
:100070002B00040404040404040402020202020229
:10008000030303030303010204081020408001025C
:1000900004081020010204081020000000080002DB
:1000A00001000003040700000000000000006B04D2
:1000B00011241FBECFEFD8E0DEBFCDBF11E0A0E01E
:1000C000B1E0ECEDF9E002C005900D92A231B1076C
:1000D000D9F722E0A2E1B1E001C01D92AB32B20734
:1000E000E1F710E0C8E5D0E004C02197FE010E94CE
:1000F000E604C735D107C9F70E9498040C94EC04B4
:100100000C94000090E0FC01E656FF4F2491FC01A6
:10011000EA57FF4F3491FC01EE58FF4FE491EE2374
:10012000C9F0222339F0233001F1A8F4213019F16C
:10013000223029F1F0E0EE0FFF1FE859FF4FA591A3
:10014000B4918FB7F894EC91611126C030953E239D
:100150003C938FBF08952730A9F02830C9F0243090
:1001600049F7809180008F7D03C0809180008F7758
:1001700080938000DFCF84B58F7784BDDBCF84B5DB
:100180008F7DFBCF8091B0008F778093B000D2CF6E
:100190008091B0008F7DF9CF3E2BDACFFC01538DDB
:1001A000448D252F30E0842F90E0821B930B541751
:1001B00010F0CF96089501970895FC01918D828DDE
:1001C000981761F0A28DAE0FBF2FB11D5D968C9177
:1001D000928D9F5F9F73928F90E008958FEF9FEFB6
:1001E0000895FC01918D828D981731F0828DE80F72
:1001F000F11D858D90E008958FEF9FEF0895FC012C
:10020000918D228D892F90E0805C9F4F821B9109F8
:100210008F73992708958EE891E00E94FF0021E0F6
:10022000892B09F420E0822F089580E090E0892B4B
:1002300029F00E940B0181110C9400000895FC012B
:10024000A48DA80FB92FB11DA35ABF4F2C91848D37
:1002500090E001968F739927848FA689B7892C9394
:10026000A089B1898C91837080648C93938D848DE7
:10027000981306C00288F389E02D80818F7D8083EA
:100280000895EF92FF920F931F93CF93DF93EC01AA
:1002900081E0888F9B8D8C8D98131AC0E889F9892D
:1002A000808185FF15C09FB7F894EE89FF89608330
:1002B000E889F98980818370806480839FBF81E0B1
:1002C00090E0DF91CF911F910F91FF90EF900895F3
:1002D000F62E0B8D10E00F5F1F4F0F731127E02ECE
:1002E0008C8D8E110CC00FB607FCFACFE889F98906
:1002F000808185FFF5CFCE010E941F01F1CFEB8DEC
:10030000EC0FFD2FF11DE35AFF4FF0829FB7F894D9
:100310000B8FEA89FB8980818062CFCFCF93DF93F7
:10032000EC01888D8823B9F0AA89BB89E889F9890D
:100330008C9185FD03C0808186FD0DC00FB607FC42
:10034000F7CF8C9185FFF2CF808185FFEDCFCE0175
:100350000E941F01E9CFDF91CF910895AF92BF9224
:10036000CF92DF92EF92FF920F931F93CF93DF9381
:100370006C017B018B01040F151FEB015E01AE18B0
:10038000BF08C017D10759F06991D601ED91FC91D2
:100390000190F081E02DC6010995892B79F7C501FF
:1003A000DF91CF911F910F91FF90EF90DF90CF9051
:1003B000BF90AF90089508958FEF9FEF08958FEF4E
:1003C0009FEF08958091840190E091958195910926
:1003D000089520913A01260F3327331F213231052A
:1003E000ECF420915E01FC0190E080E0243069F0A3
:1003F00082E00895A0913A012191AC01465E5E4FE2
:10040000A40FB52FB11D2C930196861798F38091F8
:100410003A01680F60933A0180E0089581E0089501
:10042000CF93DF93CB01EA01642F0E94E901CE0153
:10043000DF91CF910895CF93DF931F92CDB7DEB7B1
:10044000698361E0CE0101960E94E90181E090E0BC
:100450000F90DF91CF91089590E080E008951F9371
:10046000CF93DF9385ED8093BC008091160190912E
:100470001701A0911801B09119010796A11DB11D96
:1004800023E0B695A795979587952A95D1F7209162
:10049000BC0024FD03C010925E0152C040911601C1
:1004A000509117016091180170911901452B462B4D
:1004B000472B69F30097A105B10541F025E32A9583
:1004C000F1F700000197A109B109E1CF8091150171
:1004D000C1E0C0931401882399F1D091B800109124
:1004E000BA008091BC008A7B8093BC0060E082E10E
:1004F0000E94820060E083E10E94820010925E010F
:10050000C093600110925F0161E082E10E9482006D
:1005100061E083E10E9482008091B9008E7F809328
:10052000B9008091B9008D7F8093B90088E48093F1
:10053000B80085E48093BC001093BA00D093B80053
:10054000DF91CF911F9108951F920F920FB60F92D6
:1005500011242F933F934F935F936F937F938F93C8
:100560009F93AF93BF93EF93FF938EE891E00E9428
:100570001F01FF91EF91BF91AF919F918F917F915B
:100580006F915F914F913F912F910F900FBE0F9000
:100590001F9018951F920F920FB60F9211242F9350
:1005A0008F939F93EF93FF93E0919E01F0919F01B2
:1005B0008081E091A401F091A50182FD1BC0908192
:1005C0008091A7018F5F8F732091A801821741F05E
:1005D000E091A701F0E0E257FE4F958F8093A701CD
:1005E000FF91EF919F918F912F910F900FBE0F90E0
:1005F0001F9018958081F4CF1F920F920FB60F9223
:1006000011242F933F938F939F93AF93BF93809128
:100610008A0190918B01A0918C01B0918D01309154
:10062000890123E0230F2D3758F50196A11DB11D37
:100630002093890180938A0190938B01A0938C0170
:10064000B0938D018091850190918601A0918701E1
:10065000B09188010196A11DB11D809385019093F1
:100660008601A0938701B0938801BF91AF919F91BC
:100670008F913F912F910F900FBE0F901F90189563
:1006800026E8230F0296A11DB11DD2CF1F920F9213
:100690000FB60F9211242F933F934F935F936F9355
:1006A0007F938F939F93AF93BF93EF93FF9380912B
:1006B000B900887F803609F44AC0F0F5883209F421
:1006C000A5C018F5803109F499C0B8F4882309F45D
:1006D000F5C0883009F492C0FF91EF91BF91AF91BE
:1006E0009F918F917F916F915F914F913F912F914A
:1006F0000F900FBE0F901F901895883109F486C097
:10070000803251F780935D0114C0803409F49BC09E
:1007100040F48033B9F38833F9F680935D0185ECBA
:10072000AEC0803509F483C0883509F494C088349C
:1007300099F60E942F02D0CF883909F48AC038F583
:10074000883729F050F4883611F0803729F683E095
:1007500080935E0110925C0155C0883809F479C01D
:10076000803919F0803809F0B7CF80915C01803270
:1007700008F06FC0E0915C0181E08E0F80935C0116
:100780008091BB00F0E0E45CFE4F80833BC0803B87
:1007900039F0D0F4803A09F477C0883A09F09CCF58
:1007A00084E080935E0110923B0110923A01F0E0E8
:1007B000E0E0099580913A0181110FC081E08093BA
:1007C0003A0110921A0109C0803C09F4A8CF883C74
:1007D00009F4A5CF883B09F07FCFE0913B0181E090
:1007E0008E0F80933B01F0E0E65EFE4F80818093A8
:1007F000BB0090913B0180913A0129C08091830117
:100800008093BB0085EC8093BC0066CF9091820101
:1008100080918101981758F5E091820181E08E0F57
:1008200080938201F0E0EF59FE4F8081E9CFE091A3
:10083000820181E08E0F809382018091BB00F0E005
:10084000EF59FE4F8083909182018091810198172A
:10085000C8F285E8D8CFE091820181E08E0F8093C5
:1008600082018091BB00F0E0EF59FE4F80838091C0
:10087000600181115ECF81E080935F0184EA809303
:10088000BC0010925E0128CF85EC8093BC001092D2
:100890005E0180915C01803230F4E0915C01F0E017
:1008A000E45CFE4F108260915C0170E08CE391E0AB
:1008B000F0E0E0E0099510925C010ECF10925D012E
:1008C00038CF1F920F920FB60F9211240F900FBEC8
:1008D0000F901F901895EEE8F1E01382128288EED7
:1008E00093E0A0E0B0E084839583A683B78384E09F
:1008F00091E09183808385EC90E09587848784ECF8
:1009000090E09787868780EC90E0918B808B81ECDC
:1009100090E0938B828B82EC90E0958B848B86ECBD
:1009200090E0978B868B118E128E138E148E089505
:10093000789484B5826084BD84B5816084BD85B5BA
:10094000826085BD85B5816085BD80916E008160C6
:1009500080936E001092810080918100826080936C
:10096000810080918100816080938100809180006E
:100970008160809380008091B10084608093B10099
:100980008091B00081608093B00080917A00846093
:1009900080937A0080917A00826080937A008091BF
:1009A0007A00816080937A0080917A0080688093D9
:1009B0007A001092C100C0E0D0E02097F1F30E94CD
:1009C0000B018823D1F30E940000F7CFEE0FFF1F29
:0C09D0000590F491E02D0994F894FFCFFD
:1009DC00000000004101AE01CE008E01FF00DD00E1
:0209EC00F10018
:00000001FF
