:100000000C945E000C9486000C9486000C94860080
:100010000C9486000C9486000C9486000C94860048
:100020000C9486000C9486000C9486000C94860038
:100030000C9486000C9486000C9486000C94860028
:100040000C94DA010C9486000C9486000C948600C3
:100050000C9486000C9486000C9486000C94860008
:100060000C9486000C948600000000080002010039
:100070000003040700000000000000000000000072
:10008000250028002B0000000000240027002A0083
:10009000040404040404040402020202020203032E
:1000A0000303030301020408102040800102040836
:1000B0001020010204081020DD033E0411241FBE9D
:1000C000CFEFD8E0DEBFCDBF21E0A2E3B1E001C0B9
:1000D0001D92A838B207E1F711E0A0E0B1E0EEE42C
:1000E000FBE002C005900D92A233B107D9F710E0F2
:1000F000CDE5D0E004C02197FE010E946F04CC350D
:10010000D107C9F70E9424020C949A050C940000B0
:1001100090E0FC01EC55FF4F249180579F4FFC016C
:100120008491882399F090E0880F991FFC01EA5789
:10013000FF4FA591B491FC01E458FF4F8591949134
:100140008FB7F894EC91E22BEC938FBF089590E079
:10015000FC01E859FF4F2491FC01EC55FF4F34910D
:10016000FC01E057FF4FE491EE23C9F0222339F060
:10017000233001F1A8F4213019F1223029F1F0E007
:10018000EE0FFF1FE458FF4FA591B4918FB7F8947D
:10019000EC91611126C030953E233C938FBF0895AA
:1001A0002730A9F02830C9F0243049F78091800029
:1001B0008F7D03C0809180008F7780938000DFCF98
:1001C00084B58F7784BDDBCF84B58F7DFBCF8091E5
:1001D000B0008F778093B000D2CF8091B0008F7D38
:1001E000F9CF3E2BDACF1F93CF93DF93182FEB017C
:1001F0000E948800209739F460E0812FDF91CF9131
:100200001F910C94A700CF3FD10511F461E0F5CF09
:10021000E12FF0E0E859FF4FE491E33031F140F491
:10022000E130B1F0E230E1F0C038D1057CF7E4CF45
:10023000E73029F1E83059F1E430B1F780918000DE
:10024000806280938000D0938B00C0938A0004C0AA
:1002500084B5806884BDC7BDDF91CF911F9108959B
:1002600084B5806284BDC8BDF7CF8091800080686E
:1002700080938000D0938900C0938800EDCF809157
:10028000B00080688093B000C093B300E5CF809148
:10029000B00080628093B000C093B400DDCFCF92F5
:1002A000DF92EF92FF920F931F93CF93DF93FC01A6
:1002B000CB01EB0177FD279623E0D595C7952A95CD
:1002C000E1F7CE0FDF1F2C8568E070E00E94470445
:1002D000382F81E090E0A0E0B0E004C0880F991FC3
:1002E000AA1FBB1F3A95D2F734AD332381F04423C4
:1002F00059F0282B2C87DF91CF911F910F91FF9000
:10030000EF90DF90CF90089580952823F3CF44237A
:1003100081F1282B8F012C8760E086810E94A70045
:1003200060E0F80182810E94A700E801F8012285BF
:100330003385CE01801B910B82179307ECF4EC847C
:10034000D280C08088E0F82E6E2D661F6627661F5B
:100350008C2D0E94A700EE0C61E08D2D0E94A7005D
:1003600060E08D2D0E94A700FA94F110EDCF219648
:10037000DDCF80952823CECF61E08681DF91CF91BC
:100380001F910F91FF90EF90DF90CF900C94A700FA
:10039000809141019091420120913F017091400173
:1003A000009721F460E0822F0C94A70040E0622FB8
:1003B0000C944F011F920F920FB60F9211242F939E
:1003C0003F938F939F93AF93BF9380913701909109
:1003D0003801A0913901B0913A013091360123E002
:1003E000230F2D3758F50196A11DB11D209336011D
:1003F0008093370190933801A0933901B0933A016B
:100400008091320190913301A0913401B091350176
:100410000196A11DB11D8093320190933301A093E9
:100420003401B0933501BF91AF919F918F913F916E
:100430002F910F900FBE0F901F90189526E8230F55
:100440000296A11DB11DD2CF789484B5826084BD7F
:1004500084B5816084BD85B5826085BD85B58160C8
:1004600085BD80916E00816080936E001092810046
:100470008091810082608093810080918100816001
:1004800080938100809180008160809380008091C2
:10049000B10084608093B1008091B000816080934E
:1004A000B00080917A00846080937A0080917A0015
:1004B000826080937A0080917A00816080937A00D4
:1004C00080917A00806880937A001092C1000E9427
:1004D000C801109276011092750110927B01109262
:1004E0003C0110923B01109277011092780110921A
:1004F000790110927A0188E090E0909374018093E2
:10050000730180E190E00E947504809371019093E3
:100510007201ADE5B1E0FC0140962D913D91219332
:100520003193E817F907C9F782E090E090933C0116
:1005300080933B0111E0C0E0D0E001E080913B01FD
:1005400090913C018230910509F089C08FB7F894F1
:10055000C0903701D0903801E0903901F0903A0115
:100560008FBF8091770190917801A0917901B0912E
:100570007A010097A105B10511F500937B018091E7
:1005800041019091420120913F01709140010097FB
:1005900089F461E0822F0E94A700C0927701D09277
:1005A0007801E0927901F0927A01209739F20E9465
:1005B0000000C4CF41E0622F0E944F01EECFB7018F
:1005C000A601481B590B6A0B7B0B8091750190911A
:1005D0007601880F991FE0917101F0917201E80F87
:1005E000F91F80819181092E000CAA0BBB0B841787
:1005F0009507A607B707C8F680917B0181278093EE
:100600007B01882349F18091410190914201209121
:100610003F01709140010097D1F461E0822F0E9468
:10062000A7008091750190917601019690937601D3
:1006300080937501209173013091740182179307A3
:100640000CF4ABCF1092760110927501A6CF41E069
:10065000622F0E944F01E5CF0E94C801E2CF833094
:10066000910509F051C08FB7F8944091370150912E
:1006700038016091390170913A018FBF8091770103
:1006800090917801A0917901B0917A016A017B0182
:10069000C81AD90AEA0AFB0A80917C0190917D016F
:1006A000B0E0A0E08C159D05AE05BF0508F07DCF3C
:1006B00040937701509378016093790170937A01A8
:1006C00080917E0190917F01609180017091810104
:1006D000680F791F709381016093800116161706C9
:1006E0003CF42091820130918301621773073CF042
:1006F00091958195910990937F0180937E018091DE
:100700003F010E94F30051CF049709F04ECF2FB75D
:10071000F8948091370190913801A0913901B091FE
:100720003A012FBF40917701509178016091790192
:1007300070917A016C017D01C41AD50AE60AF70AA4
:1007400040917C0150917D0170E060E04C155D05A9
:100750006E057F0508F029CF80937701909378018B
:10076000A0937901B0937A012091800130918101A9
:1007700040917E0150917F01241B350B3093810104
:100780002093800137FF14C02091820130918301B2
:1007900030938101209380018C509E4FAF4FBF4F0B
:1007A0008093770190937801A0937901B0937A01B7
:1007B0006091800170918101A2CFCF93DF93CBE351
:1007C000D1E0198218821B821A8288E090E0998712
:1007D00088878091060190910701A0910801B0914E
:1007E00009018A879B87AC87BD8788E0EAE0F1E052
:1007F000A9E4B1E001900D928A95E1F78CE0E2E185
:10080000F1E0A1E5B1E001900D928A95E1F780E178
:10081000EEE1F1E0ADE5B1E001900D928A95E1F7EE
:1008200080912E0190912F01A0913001B091310162
:100830008AAB9BABACABBDAB19AE18AE1BAE1AAE60
:100840001CAE1DAE1EAE1FAE10927B0181E090E08B
:1008500090937F0180937E0110928101109280011C
:100860008FEF90E090938301809382018BE090E082
:100870009D838C83DF91CF910C94880080917101CE
:1008800090917201009711F00C941105089597FB57
:10089000072E16F4009407D077FD09D00E945B0460
:1008A00007FC05D03EF4909581959F4F0895709573
:1008B00061957F4F0895AA1BBB1B51E107C0AA1F7A
:1008C000BB1FA617B70710F0A61BB70B881F991FF1
:1008D0005A95A9F780959095BC01CD010895EE0F2A
:1008E000FF1F0590F491E02D09940F931F93CF9370
:1008F000DF938230910510F482E090E0E091860170
:10090000F091870130E020E0B0E0A0E0309799F46A
:100910002115310509F44AC0281B390B2430310553
:10092000D8F58A819B816115710589F1FB0193835B
:100930008283FE0111C040815181028113814817D9
:100940005907E0F04817590799F4109761F012968B
:100950000C93129713961C933296CF01DF91CF918F
:100960001F910F9108950093860110938701F4CF92
:100970002115310551F04217530738F0A901DB0169
:100980009A01BD01DF01F801C1CFEF01F9CF9093CA
:10099000870180938601CDCFFE01E20FF31F819383
:1009A00091932250310939832883D7CF2091840134
:1009B00030918501232B41F42091020130910301F4
:1009C0003093850120938401209100013091010131
:1009D0002115310541F42DB73EB7409104015091E6
:1009E0000501241B350BE0918401F0918501E2178C
:1009F000F307A0F42E1B3F0B2817390778F0AC0142
:100A00004E5F5F4F2417350748F04E0F5F1F50931E
:100A1000850140938401819391939FCFF0E0E0E0C2
:100A20009CCFCF93DF930097E9F0FC0132971382BC
:100A30001282A0918601B0918701ED0130E020E0A3
:100A40001097A1F420813181820F931F209184019E
:100A5000309185012817390709F061C0F0938501AD
:100A6000E0938401DF91CF910895EA01CE17DF076B
:100A7000E8F54A815B819E0141155105B1F7E90115
:100A8000FB83EA8349915991C40FD51FEC17FD07E9
:100A900061F4808191810296840F951FE901998309
:100AA0008883828193819B838A83F0E0E0E01296C1
:100AB0008D919C9113970097B9F52D913C911197C9
:100AC000CD010296820F931F209184013091850100
:100AD0002817390739F6309751F51092870110928F
:100AE0008601B0938501A0938401BCCFD383C283D8
:100AF00040815181840F951FC817D90761F44E5F5B
:100B00005F4F88819981480F591F518340838A81A3
:100B10009B81938382832115310509F0B0CFF09337
:100B20008701E09386019ECFFD01DC01C0CF1382D7
:100B30001282D7CF10E0CDE5D0E004C0FE010E94C4
:0E0B40006F042196CE35D107C9F7F894FFCF88
:100B4E00000088018000640084035000960050006D
:100B5E00B20250008200500082005000F40150009A
:100B6E00500050005000500050005000B80150008E
:020B7E00500025
:00000001FF
